{
  "_format": "hh-sol-artifact-1",
  "contractName": "ZKLiteVotingDAO",
  "sourceName": "contracts/Voting.sol",
  "abi": [
    {
      "inputs": [],
      "stateMutability": "nonpayable",
      "type": "constructor"
    },
    {
      "anonymous": false,
      "inputs": [
        {
          "indexed": false,
          "internalType": "address",
          "name": "member",
          "type": "address"
        }
      ],
      "name": "MemberAdded",
      "type": "event"
    },
    {
      "anonymous": false,
      "inputs": [
        {
          "indexed": true,
          "internalType": "uint256",
          "name": "proposalId",
          "type": "uint256"
        },
        {
          "indexed": false,
          "internalType": "string",
          "name": "description",
          "type": "string"
        },
        {
          "components": [
            {
              "internalType": "uint32",
              "name": "start",
              "type": "uint32"
            },
            {
              "internalType": "uint32",
              "name": "end",
              "type": "uint32"
            },
            {
              "internalType": "uint16",
              "name": "quorumPct",
              "type": "uint16"
            },
            {
              "internalType": "uint16",
              "name": "passPct",
              "type": "uint16"
            }
          ],
          "indexed": false,
          "internalType": "struct ZKLiteVotingDAO.Settings",
          "name": "settings",
          "type": "tuple"
        }
      ],
      "name": "ProposalCreated",
      "type": "event"
    },
    {
      "anonymous": false,
      "inputs": [
        {
          "indexed": true,
          "internalType": "uint256",
          "name": "proposalId",
          "type": "uint256"
        },
        {
          "indexed": false,
          "internalType": "bytes32",
          "name": "nullifierHash",
          "type": "bytes32"
        },
        {
          "indexed": false,
          "internalType": "bool",
          "name": "voteYes",
          "type": "bool"
        }
      ],
      "name": "VoteSubmitted",
      "type": "event"
    },
    {
      "inputs": [
        {
          "internalType": "address",
          "name": "_member",
          "type": "address"
        }
      ],
      "name": "addMember",
      "outputs": [],
      "stateMutability": "nonpayable",
      "type": "function"
    },
    {
      "inputs": [],
      "name": "admin",
      "outputs": [
        {
          "internalType": "address",
          "name": "",
          "type": "address"
        }
      ],
      "stateMutability": "view",
      "type": "function"
    },
    {
      "inputs": [
        {
          "internalType": "uint256",
          "name": "_proposalId",
          "type": "uint256"
        }
      ],
      "name": "closeProposal",
      "outputs": [],
      "stateMutability": "nonpayable",
      "type": "function"
    },
    {
      "inputs": [
        {
          "internalType": "string",
          "name": "_description",
          "type": "string"
        },
        {
          "internalType": "uint32",
          "name": "_start",
          "type": "uint32"
        },
        {
          "internalType": "uint32",
          "name": "_end",
          "type": "uint32"
        },
        {
          "internalType": "uint16",
          "name": "_quorumPct",
          "type": "uint16"
        },
        {
          "internalType": "uint16",
          "name": "_passPct",
          "type": "uint16"
        }
      ],
      "name": "createProposal",
      "outputs": [],
      "stateMutability": "nonpayable",
      "type": "function"
    },
    {
      "inputs": [
        {
          "internalType": "uint256",
          "name": "_proposalId",
          "type": "uint256"
        }
      ],
      "name": "getProposalResult",
      "outputs": [
        {
          "internalType": "string",
          "name": "",
          "type": "string"
        }
      ],
      "stateMutability": "view",
      "type": "function"
    },
    {
      "inputs": [],
      "name": "memberCount",
      "outputs": [
        {
          "internalType": "uint256",
          "name": "",
          "type": "uint256"
        }
      ],
      "stateMutability": "view",
      "type": "function"
    },
    {
      "inputs": [
        {
          "internalType": "address",
          "name": "",
          "type": "address"
        }
      ],
      "name": "members",
      "outputs": [
        {
          "internalType": "bool",
          "name": "",
          "type": "bool"
        }
      ],
      "stateMutability": "view",
      "type": "function"
    },
    {
      "inputs": [
        {
          "internalType": "bytes32",
          "name": "",
          "type": "bytes32"
        }
      ],
      "name": "nullifierHashUsed",
      "outputs": [
        {
          "internalType": "bool",
          "name": "",
          "type": "bool"
        }
      ],
      "stateMutability": "view",
      "type": "function"
    },
    {
      "inputs": [],
      "name": "proposalCount",
      "outputs": [
        {
          "internalType": "uint256",
          "name": "",
          "type": "uint256"
        }
      ],
      "stateMutability": "view",
      "type": "function"
    },
    {
      "inputs": [
        {
          "internalType": "uint256",
          "name": "",
          "type": "uint256"
        }
      ],
      "name": "proposals",
      "outputs": [
        {
          "internalType": "uint256",
          "name": "id",
          "type": "uint256"
        },
        {
          "internalType": "string",
          "name": "description",
          "type": "string"
        },
        {
          "internalType": "uint256",
          "name": "voteYes",
          "type": "uint256"
        },
        {
          "internalType": "uint256",
          "name": "voteNo",
          "type": "uint256"
        },
        {
          "internalType": "bool",
          "name": "open",
          "type": "bool"
        }
      ],
      "stateMutability": "view",
      "type": "function"
    },
    {
      "inputs": [
        {
          "internalType": "uint256",
          "name": "",
          "type": "uint256"
        }
      ],
      "name": "settings",
      "outputs": [
        {
          "internalType": "uint32",
          "name": "start",
          "type": "uint32"
        },
        {
          "internalType": "uint32",
          "name": "end",
          "type": "uint32"
        },
        {
          "internalType": "uint16",
          "name": "quorumPct",
          "type": "uint16"
        },
        {
          "internalType": "uint16",
          "name": "passPct",
          "type": "uint16"
        }
      ],
      "stateMutability": "view",
      "type": "function"
    },
    {
      "inputs": [
        {
          "internalType": "uint256",
          "name": "_proposalId",
          "type": "uint256"
        },
        {
          "internalType": "bytes32",
          "name": "_nullifierHash",
          "type": "bytes32"
        },
        {
          "internalType": "bool",
          "name": "_voteYes",
          "type": "bool"
        }
      ],
      "name": "submitVote",
      "outputs": [],
      "stateMutability": "nonpayable",
      "type": "function"
    }
  ],
  "bytecode": "0x608060405234801561001057600080fd5b50336000806101000a81548173ffffffffffffffffffffffffffffffffffffffff021916908373ffffffffffffffffffffffffffffffffffffffff16021790555061206f806100606000396000f3fe608060405234801561001057600080fd5b50600436106100b45760003560e01c8063adbf826911610071578063adbf8269146101a6578063c743406f146101c2578063ca6d56dc146101f2578063da35c6641461020e578063f851a4401461022c578063f91f88f71461024a576100b4565b8063013cf08b146100b95780630386a016146100ed57806308ae4b0c1461010957806311aee380146101395780637a777d2c14610157578063a26022bd1461018a575b600080fd5b6100d360048036038101906100ce91906110e9565b61027a565b6040516100e49594939291906111d0565b60405180910390f35b610107600480360381019061010291906110e9565b610345565b005b610123600480360381019061011e9190611288565b610405565b60405161013091906112b5565b60405180910390f35b610141610425565b60405161014e91906112d0565b60405180910390f35b610171600480360381019061016c91906110e9565b61042b565b6040516101819493929190611327565b60405180910390f35b6101a4600480360381019061019f91906113ce565b610497565b005b6101c060048036038101906101bb91906114de565b6107e1565b005b6101dc60048036038101906101d79190611578565b610b45565b6040516101e991906112b5565b60405180910390f35b61020c60048036038101906102079190611288565b610b65565b005b610216610d2a565b60405161022391906112d0565b60405180910390f35b610234610d30565b60405161024191906115b4565b60405180910390f35b610264600480360381019061025f91906110e9565b610d54565b60405161027191906115cf565b60405180910390f35b60026020528060005260406000206000915090508060000154908060010180546102a390611620565b80601f01602080910402602001604051908101604052809291908181526020018280546102cf90611620565b801561031c5780601f106102f15761010080835404028352916020019161031c565b820191906000526020600020905b8154815290600101906020018083116102ff57829003601f168201915b5050505050908060020154908060030154908060040160009054906101000a900460ff16905085565b60008054906101000a900473ffffffffffffffffffffffffffffffffffffffff1673ffffffffffffffffffffffffffffffffffffffff163373ffffffffffffffffffffffffffffffffffffffff16146103d3576040517f08c379a00000000000000000000000000000000000000000000000000000000081526004016103ca9061169d565b60405180910390fd5b60006002600083815260200190815260200160002060040160006101000a81548160ff02191690831515021790555050565b60056020528060005260406000206000915054906101000a900460ff1681565b60065481565b60036020528060005260406000206000915090508060000160009054906101000a900463ffffffff16908060000160049054906101000a900463ffffffff16908060000160089054906101000a900461ffff169080600001600a9054906101000a900461ffff16905084565b600560003373ffffffffffffffffffffffffffffffffffffffff1673ffffffffffffffffffffffffffffffffffffffff16815260200190815260200160002060009054906101000a900460ff16610523576040517f08c379a000000000000000000000000000000000000000000000000000000000815260040161051a90611709565b60405180910390fd5b60006002600085815260200190815260200160002090506000600360008681526020019081526020016000206040518060800160405290816000820160009054906101000a900463ffffffff1663ffffffff1663ffffffff1681526020016000820160049054906101000a900463ffffffff1663ffffffff1663ffffffff1681526020016000820160089054906101000a900461ffff1661ffff1661ffff16815260200160008201600a9054906101000a900461ffff1661ffff1661ffff168152505090508160040160009054906101000a900460ff16610639576040517f08c379a000000000000000000000000000000000000000000000000000000000815260040161063090611775565b60405180910390fd5b806000015163ffffffff16421015610686576040517f08c379a000000000000000000000000000000000000000000000000000000000815260040161067d906117e1565b60405180910390fd5b806020015163ffffffff164211156106d3576040517f08c379a00000000000000000000000000000000000000000000000000000000081526004016106ca9061184d565b60405180910390fd5b6004600085815260200190815260200160002060009054906101000a900460ff1615610734576040517f08c379a000000000000000000000000000000000000000000000000000000000815260040161072b906118b9565b60405180910390fd5b60016004600086815260200190815260200160002060006101000a81548160ff02191690831515021790555082156107855781600201600081548092919061077b90611908565b91905055506107a0565b81600301600081548092919061079a90611908565b91905055505b847fa3a350c7436257653bf8083e265ddc575768157c85916bdba16a3f34eafe2e4f85856040516107d292919061195f565b60405180910390a25050505050565b600560003373ffffffffffffffffffffffffffffffffffffffff1673ffffffffffffffffffffffffffffffffffffffff16815260200190815260200160002060009054906101000a900460ff1661086d576040517f08c379a000000000000000000000000000000000000000000000000000000000815260040161086490611709565b60405180910390fd5b8263ffffffff168463ffffffff16106108bb576040517f08c379a00000000000000000000000000000000000000000000000000000000081526004016108b2906119d4565b60405180910390fd5b60648261ffff16111580156108d5575060648161ffff1611155b610914576040517f08c379a000000000000000000000000000000000000000000000000000000000815260040161090b90611a40565b60405180910390fd5b6001600081548092919061092790611908565b91905055506040518060a00160405280600154815260200187878080601f016020809104026020016040519081016040528093929190818152602001838380828437600081840152601f19601f8201169050808301925050505050505081526020016000815260200160008152602001600115158152506002600060015481526020019081526020016000206000820151816000015560208201518160010190816109d29190611c3b565b50604082015181600201556060820151816003015560808201518160040160006101000a81548160ff02191690831515021790555090505060405180608001604052808563ffffffff1681526020018463ffffffff1681526020018361ffff1681526020018261ffff1681525060036000600154815260200190815260200160002060008201518160000160006101000a81548163ffffffff021916908363ffffffff16021790555060208201518160000160046101000a81548163ffffffff021916908363ffffffff16021790555060408201518160000160086101000a81548161ffff021916908361ffff160217905550606082015181600001600a6101000a81548161ffff021916908361ffff1602179055509050506001547fcc403fc94e107001dd9c2bb4a88be6772dbdeb5baa75c80fa9d97cd0ff700fba8787600360006001548152602001908152602001600020604051610b3593929190611e8f565b60405180910390a2505050505050565b60046020528060005260406000206000915054906101000a900460ff1681565b60008054906101000a900473ffffffffffffffffffffffffffffffffffffffff1673ffffffffffffffffffffffffffffffffffffffff163373ffffffffffffffffffffffffffffffffffffffff1614610bf3576040517f08c379a0000000000000000000000000000000000000000000000000000000008152600401610bea9061169d565b60405180910390fd5b600560008273ffffffffffffffffffffffffffffffffffffffff1673ffffffffffffffffffffffffffffffffffffffff16815260200190815260200160002060009054906101000a900460ff1615610c80576040517f08c379a0000000000000000000000000000000000000000000000000000000008152600401610c7790611f0d565b60405180910390fd5b6001600560008373ffffffffffffffffffffffffffffffffffffffff1673ffffffffffffffffffffffffffffffffffffffff16815260200190815260200160002060006101000a81548160ff02191690831515021790555060066000815480929190610ceb90611908565b91905055507fb251eb052afc73ffd02ffe85ad79990a8b3fed60d76dbc2fa2fdd7123dffd91481604051610d1f91906115b4565b60405180910390a150565b60015481565b60008054906101000a900473ffffffffffffffffffffffffffffffffffffffff1681565b60606000600260008481526020019081526020016000206040518060a001604052908160008201548152602001600182018054610d9090611620565b80601f0160208091040260200160405190810160405280929190818152602001828054610dbc90611620565b8015610e095780601f10610dde57610100808354040283529160200191610e09565b820191906000526020600020905b815481529060010190602001808311610dec57829003601f168201915b5050505050815260200160028201548152602001600382015481526020016004820160009054906101000a900460ff16151515158152505090506000600360008581526020019081526020016000206040518060800160405290816000820160009054906101000a900463ffffffff1663ffffffff1663ffffffff1681526020016000820160049054906101000a900463ffffffff1663ffffffff1663ffffffff1681526020016000820160089054906101000a900461ffff1661ffff1661ffff16815260200160008201600a9054906101000a900461ffff1661ffff1661ffff16815250509050600082606001518360400151610f079190611f2d565b9050600060646063846040015161ffff16600654610f259190611f61565b610f2f9190611f2d565b610f399190611fd2565b905080821015610f84576040518060400160405280600e81526020017f51756f72756d206e6f74206d65740000000000000000000000000000000000008152509450505050506110a4565b826060015161ffff1682610f989190611f61565b60648560400151610fa99190611f61565b10610fef576040518060400160405280600881526020017f41636365707465640000000000000000000000000000000000000000000000008152509450505050506110a4565b826060015160646110009190612003565b61ffff168261100f9190611f61565b606485606001516110209190611f61565b1115611067576040518060400160405280600881526020017f52656a65637465640000000000000000000000000000000000000000000000008152509450505050506110a4565b6040518060400160405280600381526020017f54696500000000000000000000000000000000000000000000000000000000008152509450505050505b919050565b600080fd5b600080fd5b6000819050919050565b6110c6816110b3565b81146110d157600080fd5b50565b6000813590506110e3816110bd565b92915050565b6000602082840312156110ff576110fe6110a9565b5b600061110d848285016110d4565b91505092915050565b61111f816110b3565b82525050565b600081519050919050565b600082825260208201905092915050565b60005b8381101561115f578082015181840152602081019050611144565b60008484015250505050565b6000601f19601f8301169050919050565b600061118782611125565b6111918185611130565b93506111a1818560208601611141565b6111aa8161116b565b840191505092915050565b60008115159050919050565b6111ca816111b5565b82525050565b600060a0820190506111e56000830188611116565b81810360208301526111f7818761117c565b90506112066040830186611116565b6112136060830185611116565b61122060808301846111c1565b9695505050505050565b600073ffffffffffffffffffffffffffffffffffffffff82169050919050565b60006112558261122a565b9050919050565b6112658161124a565b811461127057600080fd5b50565b6000813590506112828161125c565b92915050565b60006020828403121561129e5761129d6110a9565b5b60006112ac84828501611273565b91505092915050565b60006020820190506112ca60008301846111c1565b92915050565b60006020820190506112e56000830184611116565b92915050565b600063ffffffff82169050919050565b611304816112eb565b82525050565b600061ffff82169050919050565b6113218161130a565b82525050565b600060808201905061133c60008301876112fb565b61134960208301866112fb565b6113566040830185611318565b6113636060830184611318565b95945050505050565b6000819050919050565b61137f8161136c565b811461138a57600080fd5b50565b60008135905061139c81611376565b92915050565b6113ab816111b5565b81146113b657600080fd5b50565b6000813590506113c8816113a2565b92915050565b6000806000606084860312156113e7576113e66110a9565b5b60006113f5868287016110d4565b93505060206114068682870161138d565b9250506040611417868287016113b9565b9150509250925092565b600080fd5b600080fd5b600080fd5b60008083601f84011261144657611445611421565b5b8235905067ffffffffffffffff81111561146357611462611426565b5b60208301915083600182028301111561147f5761147e61142b565b5b9250929050565b61148f816112eb565b811461149a57600080fd5b50565b6000813590506114ac81611486565b92915050565b6114bb8161130a565b81146114c657600080fd5b50565b6000813590506114d8816114b2565b92915050565b60008060008060008060a087890312156114fb576114fa6110a9565b5b600087013567ffffffffffffffff811115611519576115186110ae565b5b61152589828a01611430565b9650965050602061153889828a0161149d565b945050604061154989828a0161149d565b935050606061155a89828a016114c9565b925050608061156b89828a016114c9565b9150509295509295509295565b60006020828403121561158e5761158d6110a9565b5b600061159c8482850161138d565b91505092915050565b6115ae8161124a565b82525050565b60006020820190506115c960008301846115a5565b92915050565b600060208201905081810360008301526115e9818461117c565b905092915050565b7f4e487b7100000000000000000000000000000000000000000000000000000000600052602260045260246000fd5b6000600282049050600182168061163857607f821691505b60208210810361164b5761164a6115f1565b5b50919050565b7f4e6f7420617574686f72697a6564000000000000000000000000000000000000600082015250565b6000611687600e83611130565b915061169282611651565b602082019050919050565b600060208201905081810360008301526116b68161167a565b9050919050565b7f4e6f7420612044414f206d656d62657200000000000000000000000000000000600082015250565b60006116f3601083611130565b91506116fe826116bd565b602082019050919050565b60006020820190508181036000830152611722816116e6565b9050919050565b7f566f74696e6720636c6f73656400000000000000000000000000000000000000600082015250565b600061175f600d83611130565b915061176a82611729565b602082019050919050565b6000602082019050818103600083015261178e81611752565b9050919050565b7f546f6f206561726c790000000000000000000000000000000000000000000000600082015250565b60006117cb600983611130565b91506117d682611795565b602082019050919050565b600060208201905081810360008301526117fa816117be565b9050919050565b7f546f6f206c617465000000000000000000000000000000000000000000000000600082015250565b6000611837600883611130565b915061184282611801565b602082019050919050565b600060208201905081810360008301526118668161182a565b9050919050565b7f446f75626c6520766f7465000000000000000000000000000000000000000000600082015250565b60006118a3600b83611130565b91506118ae8261186d565b602082019050919050565b600060208201905081810360008301526118d281611896565b9050919050565b7f4e487b7100000000000000000000000000000000000000000000000000000000600052601160045260246000fd5b6000611913826110b3565b91507fffffffffffffffffffffffffffffffffffffffffffffffffffffffffffffffff8203611945576119446118d9565b5b600182019050919050565b6119598161136c565b82525050565b60006040820190506119746000830185611950565b61198160208301846111c1565b9392505050565b7f4261642074696d652077696e646f770000000000000000000000000000000000600082015250565b60006119be600f83611130565b91506119c982611988565b602082019050919050565b600060208201905081810360008301526119ed816119b1565b9050919050565b7f506374203e203130300000000000000000000000000000000000000000000000600082015250565b6000611a2a600983611130565b9150611a35826119f4565b602082019050919050565b60006020820190508181036000830152611a5981611a1d565b9050919050565b7f4e487b7100000000000000000000000000000000000000000000000000000000600052604160045260246000fd5b60008190508160005260206000209050919050565b60006020601f8301049050919050565b600082821b905092915050565b600060088302611af17fffffffffffffffffffffffffffffffffffffffffffffffffffffffffffffffff82611ab4565b611afb8683611ab4565b95508019841693508086168417925050509392505050565b6000819050919050565b6000611b38611b33611b2e846110b3565b611b13565b6110b3565b9050919050565b6000819050919050565b611b5283611b1d565b611b66611b5e82611b3f565b848454611ac1565b825550505050565b600090565b611b7b611b6e565b611b86818484611b49565b505050565b5b81811015611baa57611b9f600082611b73565b600181019050611b8c565b5050565b601f821115611bef57611bc081611a8f565b611bc984611aa4565b81016020851015611bd8578190505b611bec611be485611aa4565b830182611b8b565b50505b505050565b600082821c905092915050565b6000611c1260001984600802611bf4565b1980831691505092915050565b6000611c2b8383611c01565b9150826002028217905092915050565b611c4482611125565b67ffffffffffffffff811115611c5d57611c5c611a60565b5b611c678254611620565b611c72828285611bae565b600060209050601f831160018114611ca55760008415611c93578287015190505b611c9d8582611c1f565b865550611d05565b601f198416611cb386611a8f565b60005b82811015611cdb57848901518255600182019150602085019450602081019050611cb6565b86831015611cf85784890151611cf4601f891682611c01565b8355505b6001600288020188555050505b505050505050565b82818337600083830152505050565b6000611d288385611130565b9350611d35838584611d0d565b611d3e8361116b565b840190509392505050565b60008160001c9050919050565b600063ffffffff82169050919050565b6000611d79611d7483611d49565b611d56565b9050919050565b611d89816112eb565b82525050565b60008160201c9050919050565b6000611daf611daa83611d8f565b611d56565b9050919050565b60008160401c9050919050565b600061ffff82169050919050565b6000611de4611ddf83611db6565b611dc3565b9050919050565b611df48161130a565b82525050565b60008160501c9050919050565b6000611e1a611e1583611dfa565b611dc3565b9050919050565b608082016000808301549050611e3681611d66565b611e436000860182611d80565b50611e4d81611d9c565b611e5a6020860182611d80565b50611e6481611dd1565b611e716040860182611deb565b50611e7b81611e07565b611e886060860182611deb565b5050505050565b600060a0820190508181036000830152611eaa818587611d1c565b9050611eb96020830184611e21565b949350505050565b7f416c72656164792061206d656d62657200000000000000000000000000000000600082015250565b6000611ef7601083611130565b9150611f0282611ec1565b602082019050919050565b60006020820190508181036000830152611f2681611eea565b9050919050565b6000611f38826110b3565b9150611f43836110b3565b9250828201905080821115611f5b57611f5a6118d9565b5b92915050565b6000611f6c826110b3565b9150611f77836110b3565b9250828202611f85816110b3565b91508282048414831517611f9c57611f9b6118d9565b5b5092915050565b7f4e487b7100000000000000000000000000000000000000000000000000000000600052601260045260246000fd5b6000611fdd826110b3565b9150611fe8836110b3565b925082611ff857611ff7611fa3565b5b828204905092915050565b600061200e8261130a565b91506120198361130a565b9250828203905061ffff811115612033576120326118d9565b5b9291505056fea2646970667358221220d292dec017a385fc87c3547a6292c02ead51042ef9e1b3a9712dac82998fcbe264736f6c63430008130033",
  "linkReferences": {},
  "deployedLinkReferences": {}
}